{
  "_format": "hh3-artifact-1",
  "contractName": "PropertyNFT",
  "sourceName": "contracts/PropertyNFT.sol",
  "abi": [
    {
      "inputs": [],
      "stateMutability": "nonpayable",
      "type": "constructor"
    },
    {
      "inputs": [
        {
          "internalType": "address",
          "name": "sender",
          "type": "address"
        },
        {
          "internalType": "uint256",
          "name": "tokenId",
          "type": "uint256"
        },
        {
          "internalType": "address",
          "name": "owner",
          "type": "address"
        }
      ],
      "name": "ERC721IncorrectOwner",
      "type": "error"
    },
    {
      "inputs": [
        {
          "internalType": "address",
          "name": "operator",
          "type": "address"
        },
        {
          "internalType": "uint256",
          "name": "tokenId",
          "type": "uint256"
        }
      ],
      "name": "ERC721InsufficientApproval",
      "type": "error"
    },
    {
      "inputs": [
        {
          "internalType": "address",
          "name": "approver",
          "type": "address"
        }
      ],
      "name": "ERC721InvalidApprover",
      "type": "error"
    },
    {
      "inputs": [
        {
          "internalType": "address",
          "name": "operator",
          "type": "address"
        }
      ],
      "name": "ERC721InvalidOperator",
      "type": "error"
    },
    {
      "inputs": [
        {
          "internalType": "address",
          "name": "owner",
          "type": "address"
        }
      ],
      "name": "ERC721InvalidOwner",
      "type": "error"
    },
    {
      "inputs": [
        {
          "internalType": "address",
          "name": "receiver",
          "type": "address"
        }
      ],
      "name": "ERC721InvalidReceiver",
      "type": "error"
    },
    {
      "inputs": [
        {
          "internalType": "address",
          "name": "sender",
          "type": "address"
        }
      ],
      "name": "ERC721InvalidSender",
      "type": "error"
    },
    {
      "inputs": [
        {
          "internalType": "uint256",
          "name": "tokenId",
          "type": "uint256"
        }
      ],
      "name": "ERC721NonexistentToken",
      "type": "error"
    },
    {
      "inputs": [
        {
          "internalType": "address",
          "name": "owner",
          "type": "address"
        }
      ],
      "name": "OwnableInvalidOwner",
      "type": "error"
    },
    {
      "inputs": [
        {
          "internalType": "address",
          "name": "account",
          "type": "address"
        }
      ],
      "name": "OwnableUnauthorizedAccount",
      "type": "error"
    },
    {
      "inputs": [],
      "name": "ReentrancyGuardReentrantCall",
      "type": "error"
    },
    {
      "anonymous": false,
      "inputs": [
        {
          "indexed": true,
          "internalType": "address",
          "name": "owner",
          "type": "address"
        },
        {
          "indexed": true,
          "internalType": "address",
          "name": "approved",
          "type": "address"
        },
        {
          "indexed": true,
          "internalType": "uint256",
          "name": "tokenId",
          "type": "uint256"
        }
      ],
      "name": "Approval",
      "type": "event"
    },
    {
      "anonymous": false,
      "inputs": [
        {
          "indexed": true,
          "internalType": "address",
          "name": "owner",
          "type": "address"
        },
        {
          "indexed": true,
          "internalType": "address",
          "name": "operator",
          "type": "address"
        },
        {
          "indexed": false,
          "internalType": "bool",
          "name": "approved",
          "type": "bool"
        }
      ],
      "name": "ApprovalForAll",
      "type": "event"
    },
    {
      "anonymous": false,
      "inputs": [
        {
          "indexed": false,
          "internalType": "uint256",
          "name": "_fromTokenId",
          "type": "uint256"
        },
        {
          "indexed": false,
          "internalType": "uint256",
          "name": "_toTokenId",
          "type": "uint256"
        }
      ],
      "name": "BatchMetadataUpdate",
      "type": "event"
    },
    {
      "anonymous": false,
      "inputs": [
        {
          "indexed": false,
          "internalType": "uint256",
          "name": "_tokenId",
          "type": "uint256"
        }
      ],
      "name": "MetadataUpdate",
      "type": "event"
    },
    {
      "anonymous": false,
      "inputs": [
        {
          "indexed": true,
          "internalType": "address",
          "name": "previousOwner",
          "type": "address"
        },
        {
          "indexed": true,
          "internalType": "address",
          "name": "newOwner",
          "type": "address"
        }
      ],
      "name": "OwnershipTransferred",
      "type": "event"
    },
    {
      "anonymous": false,
      "inputs": [
        {
          "indexed": true,
          "internalType": "uint256",
          "name": "tokenId",
          "type": "uint256"
        },
        {
          "indexed": true,
          "internalType": "address",
          "name": "seller",
          "type": "address"
        },
        {
          "indexed": false,
          "internalType": "uint256",
          "name": "priceWei",
          "type": "uint256"
        }
      ],
      "name": "PropertyListed",
      "type": "event"
    },
    {
      "anonymous": false,
      "inputs": [
        {
          "indexed": true,
          "internalType": "uint256",
          "name": "tokenId",
          "type": "uint256"
        },
        {
          "indexed": true,
          "internalType": "address",
          "name": "owner",
          "type": "address"
        },
        {
          "indexed": false,
          "internalType": "string",
          "name": "physicalAddress",
          "type": "string"
        }
      ],
      "name": "PropertyMinted",
      "type": "event"
    },
    {
      "anonymous": false,
      "inputs": [
        {
          "indexed": true,
          "internalType": "uint256",
          "name": "tokenId",
          "type": "uint256"
        },
        {
          "indexed": false,
          "internalType": "uint256",
          "name": "newPrice",
          "type": "uint256"
        }
      ],
      "name": "PropertyPriceUpdated",
      "type": "event"
    },
    {
      "anonymous": false,
      "inputs": [
        {
          "indexed": true,
          "internalType": "uint256",
          "name": "tokenId",
          "type": "uint256"
        }
      ],
      "name": "PropertySaleCancelled",
      "type": "event"
    },
    {
      "anonymous": false,
      "inputs": [
        {
          "indexed": true,
          "internalType": "uint256",
          "name": "tokenId",
          "type": "uint256"
        },
        {
          "indexed": true,
          "internalType": "address",
          "name": "from",
          "type": "address"
        },
        {
          "indexed": true,
          "internalType": "address",
          "name": "to",
          "type": "address"
        }
      ],
      "name": "PropertyTransferred",
      "type": "event"
    },
    {
      "anonymous": false,
      "inputs": [
        {
          "indexed": true,
          "internalType": "address",
          "name": "from",
          "type": "address"
        },
        {
          "indexed": true,
          "internalType": "address",
          "name": "to",
          "type": "address"
        },
        {
          "indexed": true,
          "internalType": "uint256",
          "name": "tokenId",
          "type": "uint256"
        }
      ],
      "name": "Transfer",
      "type": "event"
    },
    {
      "inputs": [
        {
          "internalType": "address",
          "name": "to",
          "type": "address"
        },
        {
          "internalType": "uint256",
          "name": "tokenId",
          "type": "uint256"
        }
      ],
      "name": "approve",
      "outputs": [],
      "stateMutability": "nonpayable",
      "type": "function"
    },
    {
      "inputs": [
        {
          "internalType": "address",
          "name": "owner",
          "type": "address"
        }
      ],
      "name": "balanceOf",
      "outputs": [
        {
          "internalType": "uint256",
          "name": "",
          "type": "uint256"
        }
      ],
      "stateMutability": "view",
      "type": "function"
    },
    {
      "inputs": [
        {
          "internalType": "uint256",
          "name": "tokenId",
          "type": "uint256"
        }
      ],
      "name": "buyProperty",
      "outputs": [],
      "stateMutability": "payable",
      "type": "function"
    },
    {
      "inputs": [
        {
          "internalType": "uint256",
          "name": "tokenId",
          "type": "uint256"
        }
      ],
      "name": "cancelListing",
      "outputs": [],
      "stateMutability": "nonpayable",
      "type": "function"
    },
    {
      "inputs": [
        {
          "internalType": "uint256",
          "name": "tokenId",
          "type": "uint256"
        }
      ],
      "name": "getApproved",
      "outputs": [
        {
          "internalType": "address",
          "name": "",
          "type": "address"
        }
      ],
      "stateMutability": "view",
      "type": "function"
    },
    {
      "inputs": [
        {
          "internalType": "address",
          "name": "owner",
          "type": "address"
        },
        {
          "internalType": "address",
          "name": "operator",
          "type": "address"
        }
      ],
      "name": "isApprovedForAll",
      "outputs": [
        {
          "internalType": "bool",
          "name": "",
          "type": "bool"
        }
      ],
      "stateMutability": "view",
      "type": "function"
    },
    {
      "inputs": [
        {
          "internalType": "uint256",
          "name": "tokenId",
          "type": "uint256"
        },
        {
          "internalType": "uint256",
          "name": "priceWei",
          "type": "uint256"
        }
      ],
      "name": "listProperty",
      "outputs": [],
      "stateMutability": "nonpayable",
      "type": "function"
    },
    {
      "inputs": [
        {
          "internalType": "uint256",
          "name": "",
          "type": "uint256"
        }
      ],
      "name": "listings",
      "outputs": [
        {
          "internalType": "address",
          "name": "seller",
          "type": "address"
        },
        {
          "internalType": "uint256",
          "name": "priceWei",
          "type": "uint256"
        },
        {
          "internalType": "bool",
          "name": "isActive",
          "type": "bool"
        }
      ],
      "stateMutability": "view",
      "type": "function"
    },
    {
      "inputs": [
        {
          "internalType": "address",
          "name": "owner",
          "type": "address"
        },
        {
          "internalType": "string",
          "name": "physicalAddress",
          "type": "string"
        }
      ],
      "name": "mintProperty",
      "outputs": [
        {
          "internalType": "uint256",
          "name": "",
          "type": "uint256"
        }
      ],
      "stateMutability": "nonpayable",
      "type": "function"
    },
    {
      "inputs": [],
      "name": "name",
      "outputs": [
        {
          "internalType": "string",
          "name": "",
          "type": "string"
        }
      ],
      "stateMutability": "view",
      "type": "function"
    },
    {
      "inputs": [],
      "name": "owner",
      "outputs": [
        {
          "internalType": "address",
          "name": "",
          "type": "address"
        }
      ],
      "stateMutability": "view",
      "type": "function"
    },
    {
      "inputs": [
        {
          "internalType": "uint256",
          "name": "tokenId",
          "type": "uint256"
        }
      ],
      "name": "ownerOf",
      "outputs": [
        {
          "internalType": "address",
          "name": "",
          "type": "address"
        }
      ],
      "stateMutability": "view",
      "type": "function"
    },
    {
      "inputs": [
        {
          "internalType": "uint256",
          "name": "",
          "type": "uint256"
        }
      ],
      "name": "properties",
      "outputs": [
        {
          "internalType": "string",
          "name": "physicalAddress",
          "type": "string"
        },
        {
          "internalType": "uint256",
          "name": "tokenId",
          "type": "uint256"
        }
      ],
      "stateMutability": "view",
      "type": "function"
    },
    {
      "inputs": [
        {
          "internalType": "bytes32",
          "name": "",
          "type": "bytes32"
        }
      ],
      "name": "propertyExists",
      "outputs": [
        {
          "internalType": "bool",
          "name": "",
          "type": "bool"
        }
      ],
      "stateMutability": "view",
      "type": "function"
    },
    {
      "inputs": [],
      "name": "renounceOwnership",
      "outputs": [],
      "stateMutability": "nonpayable",
      "type": "function"
    },
    {
      "inputs": [
        {
          "internalType": "address",
          "name": "from",
          "type": "address"
        },
        {
          "internalType": "address",
          "name": "to",
          "type": "address"
        },
        {
          "internalType": "uint256",
          "name": "tokenId",
          "type": "uint256"
        }
      ],
      "name": "safeTransferFrom",
      "outputs": [],
      "stateMutability": "nonpayable",
      "type": "function"
    },
    {
      "inputs": [
        {
          "internalType": "address",
          "name": "from",
          "type": "address"
        },
        {
          "internalType": "address",
          "name": "to",
          "type": "address"
        },
        {
          "internalType": "uint256",
          "name": "tokenId",
          "type": "uint256"
        },
        {
          "internalType": "bytes",
          "name": "data",
          "type": "bytes"
        }
      ],
      "name": "safeTransferFrom",
      "outputs": [],
      "stateMutability": "nonpayable",
      "type": "function"
    },
    {
      "inputs": [
        {
          "internalType": "address",
          "name": "operator",
          "type": "address"
        },
        {
          "internalType": "bool",
          "name": "approved",
          "type": "bool"
        }
      ],
      "name": "setApprovalForAll",
      "outputs": [],
      "stateMutability": "nonpayable",
      "type": "function"
    },
    {
      "inputs": [
        {
          "internalType": "bytes4",
          "name": "interfaceId",
          "type": "bytes4"
        }
      ],
      "name": "supportsInterface",
      "outputs": [
        {
          "internalType": "bool",
          "name": "",
          "type": "bool"
        }
      ],
      "stateMutability": "view",
      "type": "function"
    },
    {
      "inputs": [],
      "name": "symbol",
      "outputs": [
        {
          "internalType": "string",
          "name": "",
          "type": "string"
        }
      ],
      "stateMutability": "view",
      "type": "function"
    },
    {
      "inputs": [
        {
          "internalType": "uint256",
          "name": "tokenId",
          "type": "uint256"
        }
      ],
      "name": "tokenURI",
      "outputs": [
        {
          "internalType": "string",
          "name": "",
          "type": "string"
        }
      ],
      "stateMutability": "view",
      "type": "function"
    },
    {
      "inputs": [
        {
          "internalType": "address",
          "name": "from",
          "type": "address"
        },
        {
          "internalType": "address",
          "name": "to",
          "type": "address"
        },
        {
          "internalType": "uint256",
          "name": "tokenId",
          "type": "uint256"
        }
      ],
      "name": "transferFrom",
      "outputs": [],
      "stateMutability": "nonpayable",
      "type": "function"
    },
    {
      "inputs": [
        {
          "internalType": "address",
          "name": "newOwner",
          "type": "address"
        }
      ],
      "name": "transferOwnership",
      "outputs": [],
      "stateMutability": "nonpayable",
      "type": "function"
    },
    {
      "inputs": [
        {
          "internalType": "uint256",
          "name": "tokenId",
          "type": "uint256"
        },
        {
          "internalType": "uint256",
          "name": "newPrice",
          "type": "uint256"
        }
      ],
      "name": "updateListing",
      "outputs": [],
      "stateMutability": "nonpayable",
      "type": "function"
    }
  ],
  "bytecode": "0x60806040526001600855348015610014575f5ffd5b50336040518060400160405280600b81526020017f50726f70657274794e46540000000000000000000000000000000000000000008152506040518060400160405280600481526020017f50524f5000000000000000000000000000000000000000000000000000000000815250815f9081610090919061047e565b5080600190816100a0919061047e565b5050505f73ffffffffffffffffffffffffffffffffffffffff168173ffffffffffffffffffffffffffffffffffffffff1603610113575f6040517f1e4fbdf700000000000000000000000000000000000000000000000000000000815260040161010a919061058c565b60405180910390fd5b6101228161014c60201b60201c565b50600161014161013661020f60201b60201c565b61023860201b60201c565b5f01819055506105a5565b5f60075f9054906101000a900473ffffffffffffffffffffffffffffffffffffffff1690508160075f6101000a81548173ffffffffffffffffffffffffffffffffffffffff021916908373ffffffffffffffffffffffffffffffffffffffff1602179055508173ffffffffffffffffffffffffffffffffffffffff168173ffffffffffffffffffffffffffffffffffffffff167f8be0079c531659141344cd1fd0a4f28419497f9722a3daafe3b4186f6b6457e060405160405180910390a35050565b5f7f9b779b17422d0df92223018b32b4d1fa46e071723d6817e2486d003becc55f005f1b905090565b5f819050919050565b5f81519050919050565b7f4e487b71000000000000000000000000000000000000000000000000000000005f52604160045260245ffd5b7f4e487b71000000000000000000000000000000000000000000000000000000005f52602260045260245ffd5b5f60028204905060018216806102bc57607f821691505b6020821081036102cf576102ce610278565b5b50919050565b5f819050815f5260205f209050919050565b5f6020601f8301049050919050565b5f82821b905092915050565b5f600883026103317fffffffffffffffffffffffffffffffffffffffffffffffffffffffffffffffff826102f6565b61033b86836102f6565b95508019841693508086168417925050509392505050565b5f819050919050565b5f819050919050565b5f61037f61037a61037584610353565b61035c565b610353565b9050919050565b5f819050919050565b61039883610365565b6103ac6103a482610386565b848454610302565b825550505050565b5f5f905090565b6103c36103b4565b6103ce81848461038f565b505050565b5b818110156103f1576103e65f826103bb565b6001810190506103d4565b5050565b601f82111561043657610407816102d5565b610410846102e7565b8101602085101561041f578190505b61043361042b856102e7565b8301826103d3565b50505b505050565b5f82821c905092915050565b5f6104565f198460080261043b565b1980831691505092915050565b5f61046e8383610447565b9150826002028217905092915050565b61048782610241565b67ffffffffffffffff8111156104a05761049f61024b565b5b6104aa82546102a5565b6104b58282856103f5565b5f60209050601f8311600181146104e6575f84156104d4578287015190505b6104de8582610463565b865550610545565b601f1984166104f4866102d5565b5f5b8281101561051b578489015182556001820191506020850194506020810190506104f6565b868310156105385784890151610534601f891682610447565b8355505b6001600288020188555050505b505050505050565b5f73ffffffffffffffffffffffffffffffffffffffff82169050919050565b5f6105768261054d565b9050919050565b6105868161056c565b82525050565b5f60208201905061059f5f83018461057d565b92915050565b613c83806105b25f395ff3fe60806040526004361061014a575f3560e01c806370a08231116100b5578063b8be73de1161006e578063b8be73de1461046a578063c87b56dd146104a6578063de74e57b146104e2578063e985e9c514610520578063f2fde38b1461055c578063f7b10808146105845761014a565b806370a0823114610374578063715018a6146103b05780638da5cb5b146103c657806395d89b41146103f0578063a22cb4651461041a578063b88d4fde146104425761014a565b806323b872dd1161010757806323b872dd1461027c578063305a67a8146102a457806342842e0e146102cc5780634eda529b146102f45780636352211e1461031c5780636fa830a6146103585761014a565b80630179ea881461014e57806301ffc9a71461017657806306fdde03146101b2578063081812fc146101dc578063095ea7b314610218578063177dc17f14610240575b5f5ffd5b348015610159575f5ffd5b50610174600480360381019061016f9190612a05565b6105c1565b005b348015610181575f5ffd5b5061019c60048036038101906101979190612a98565b61073d565b6040516101a99190612add565b60405180910390f35b3480156101bd575f5ffd5b506101c661079d565b6040516101d39190612b66565b60405180910390f35b3480156101e7575f5ffd5b5061020260048036038101906101fd9190612b86565b61082c565b60405161020f9190612bf0565b60405180910390f35b348015610223575f5ffd5b5061023e60048036038101906102399190612c33565b610847565b005b34801561024b575f5ffd5b5061026660048036038101906102619190612d9d565b61085d565b6040516102739190612e06565b60405180910390f35b348015610287575f5ffd5b506102a2600480360381019061029d9190612e1f565b610a90565b005b3480156102af575f5ffd5b506102ca60048036038101906102c59190612b86565b610b8f565b005b3480156102d7575f5ffd5b506102f260048036038101906102ed9190612e1f565b610ccf565b005b3480156102ff575f5ffd5b5061031a60048036038101906103159190612a05565b610cee565b005b348015610327575f5ffd5b50610342600480360381019061033d9190612b86565b610f35565b60405161034f9190612bf0565b60405180910390f35b610372600480360381019061036d9190612b86565b610f46565b005b34801561037f575f5ffd5b5061039a60048036038101906103959190612e6f565b61124e565b6040516103a79190612e06565b60405180910390f35b3480156103bb575f5ffd5b506103c4611304565b005b3480156103d1575f5ffd5b506103da611317565b6040516103e79190612bf0565b60405180910390f35b3480156103fb575f5ffd5b5061040461133f565b6040516104119190612b66565b60405180910390f35b348015610425575f5ffd5b50610440600480360381019061043b9190612ec4565b6113cf565b005b34801561044d575f5ffd5b5061046860048036038101906104639190612fa0565b6113e5565b005b348015610475575f5ffd5b50610490600480360381019061048b9190613053565b61140a565b60405161049d9190612add565b60405180910390f35b3480156104b1575f5ffd5b506104cc60048036038101906104c79190612b86565b611427565b6040516104d99190612b66565b60405180910390f35b3480156104ed575f5ffd5b5061050860048036038101906105039190612b86565b6114a3565b6040516105179392919061307e565b60405180910390f35b34801561052b575f5ffd5b50610546600480360381019061054191906130b3565b6114f4565b6040516105539190612add565b60405180910390f35b348015610567575f5ffd5b50610582600480360381019061057d9190612e6f565b611582565b005b34801561058f575f5ffd5b506105aa60048036038101906105a59190612b86565b611606565b6040516105b89291906130f1565b60405180910390f35b5f600a5f8481526020019081526020015f2090503373ffffffffffffffffffffffffffffffffffffffff16815f015f9054906101000a900473ffffffffffffffffffffffffffffffffffffffff1673ffffffffffffffffffffffffffffffffffffffff1614610665576040517f08c379a000000000000000000000000000000000000000000000000000000000815260040161065c90613169565b60405180910390fd5b806002015f9054906101000a900460ff166106b5576040517f08c379a00000000000000000000000000000000000000000000000000000000081526004016106ac906131d1565b60405180910390fd5b5f82116106f7576040517f08c379a00000000000000000000000000000000000000000000000000000000081526004016106ee90613239565b60405180910390fd5b818160010181905550827ff73705cc3056ac9339b98dc8b7f9612e3851eb98f309b8bdff61cb3b0b34b9b4836040516107309190612e06565b60405180910390a2505050565b5f634906490660e01b7bffffffffffffffffffffffffffffffffffffffffffffffffffffffff1916827bffffffffffffffffffffffffffffffffffffffffffffffffffffffff191614806107965750610795826116ac565b5b9050919050565b60605f80546107ab90613284565b80601f01602080910402602001604051908101604052809291908181526020018280546107d790613284565b80156108225780601f106107f957610100808354040283529160200191610822565b820191905f5260205f20905b81548152906001019060200180831161080557829003601f168201915b5050505050905090565b5f6108368261178d565b5061084082611813565b9050919050565b610859828261085461184c565b611853565b5050565b5f610866611865565b5f73ffffffffffffffffffffffffffffffffffffffff168373ffffffffffffffffffffffffffffffffffffffff16036108d4576040517f08c379a00000000000000000000000000000000000000000000000000000000081526004016108cb906132fe565b60405180910390fd5b5f825111610917576040517f08c379a000000000000000000000000000000000000000000000000000000000815260040161090e90613366565b60405180910390fd5b5f8260405160200161092991906133be565b60405160208183030381529060405280519060200120905060095f8281526020019081526020015f205f9054906101000a900460ff161561099f576040517f08c379a00000000000000000000000000000000000000000000000000000000081526004016109969061341e565b60405180910390fd5b5f600854905060085f8154809291906109b790613469565b91905055506109c685826118ec565b600160095f8481526020019081526020015f205f6101000a81548160ff021916908315150217905550604051806040016040528085815260200182815250600b5f8381526020019081526020015f205f820151815f019081610a289190613650565b50602082015181600101559050508473ffffffffffffffffffffffffffffffffffffffff16817f0d6a75679ec9091a61a3192722f7073bfdf34a0e67c61c08484adef28bfa375a86604051610a7d9190612b66565b60405180910390a3809250505092915050565b5f73ffffffffffffffffffffffffffffffffffffffff168273ffffffffffffffffffffffffffffffffffffffff1603610b00575f6040517f64a0ae92000000000000000000000000000000000000000000000000000000008152600401610af79190612bf0565b60405180910390fd5b5f610b138383610b0e61184c565b611909565b90508373ffffffffffffffffffffffffffffffffffffffff168173ffffffffffffffffffffffffffffffffffffffff1614610b89578382826040517f64283d7b000000000000000000000000000000000000000000000000000000008152600401610b809392919061371f565b60405180910390fd5b50505050565b5f600a5f8381526020019081526020015f2090503373ffffffffffffffffffffffffffffffffffffffff16815f015f9054906101000a900473ffffffffffffffffffffffffffffffffffffffff1673ffffffffffffffffffffffffffffffffffffffff1614610c33576040517f08c379a0000000000000000000000000000000000000000000000000000000008152600401610c2a90613169565b60405180910390fd5b806002015f9054906101000a900460ff16610c83576040517f08c379a0000000000000000000000000000000000000000000000000000000008152600401610c7a906131d1565b60405180910390fd5b5f816002015f6101000a81548160ff021916908315150217905550817f871a96bcac8326bf82aea94341df252a5ec1dae7cad4187675f9cb6b333282ed60405160405180910390a25050565b610ce983838360405180602001604052805f8152506113e5565b505050565b3373ffffffffffffffffffffffffffffffffffffffff16610d0e83611b14565b73ffffffffffffffffffffffffffffffffffffffff1614610d64576040517f08c379a0000000000000000000000000000000000000000000000000000000008152600401610d5b9061379e565b60405180910390fd5b5f8111610da6576040517f08c379a0000000000000000000000000000000000000000000000000000000008152600401610d9d90613806565b60405180910390fd5b3073ffffffffffffffffffffffffffffffffffffffff16610dc68361082c565b73ffffffffffffffffffffffffffffffffffffffff161480610dee5750610ded33306114f4565b5b610e2d576040517f08c379a0000000000000000000000000000000000000000000000000000000008152600401610e249061386e565b60405180910390fd5b60405180606001604052803373ffffffffffffffffffffffffffffffffffffffff16815260200182815260200160011515815250600a5f8481526020019081526020015f205f820151815f015f6101000a81548173ffffffffffffffffffffffffffffffffffffffff021916908373ffffffffffffffffffffffffffffffffffffffff160217905550602082015181600101556040820151816002015f6101000a81548160ff0219169083151502179055509050503373ffffffffffffffffffffffffffffffffffffffff16827f23fb658c1698b92f5fe511a079c17ecf7965cbc3f1b873328c67e2c3c0820f1f83604051610f299190612e06565b60405180910390a35050565b5f610f3f8261178d565b9050919050565b610f4e611b4d565b5f600a5f8381526020019081526020015f209050806002015f9054906101000a900460ff16610fb2576040517f08c379a0000000000000000000000000000000000000000000000000000000008152600401610fa9906138d6565b60405180910390fd5b80600101543414610ff8576040517f08c379a0000000000000000000000000000000000000000000000000000000008152600401610fef9061393e565b60405180910390fd5b5f815f015f9054906101000a900473ffffffffffffffffffffffffffffffffffffffff1690505f3390508173ffffffffffffffffffffffffffffffffffffffff168173ffffffffffffffffffffffffffffffffffffffff1603611090576040517f08c379a0000000000000000000000000000000000000000000000000000000008152600401611087906139cc565b60405180910390fd5b8173ffffffffffffffffffffffffffffffffffffffff166110b085610f35565b73ffffffffffffffffffffffffffffffffffffffff1614611106576040517f08c379a00000000000000000000000000000000000000000000000000000000081526004016110fd90613a34565b60405180910390fd5b611111828286611b6f565b5f8273ffffffffffffffffffffffffffffffffffffffff163460405161113690613a7f565b5f6040518083038185875af1925050503d805f8114611170576040519150601f19603f3d011682016040523d82523d5f602084013e611175565b606091505b50509050806111b9576040517f08c379a00000000000000000000000000000000000000000000000000000000081526004016111b090613add565b60405180910390fd5b5f600a5f8781526020019081526020015f206002015f6101000a81548160ff0219169083151502179055508173ffffffffffffffffffffffffffffffffffffffff168373ffffffffffffffffffffffffffffffffffffffff16867f2231fc8bc2c20e26d85d66dc7f13a6b6d535c86d2a4d678bb2de61f5b713608360405160405180910390a45050505061124b611cd7565b50565b5f5f73ffffffffffffffffffffffffffffffffffffffff168273ffffffffffffffffffffffffffffffffffffffff16036112bf575f6040517f89c62b640000000000000000000000000000000000000000000000000000000081526004016112b69190612bf0565b60405180910390fd5b60035f8373ffffffffffffffffffffffffffffffffffffffff1673ffffffffffffffffffffffffffffffffffffffff1681526020019081526020015f20549050919050565b61130c611865565b6113155f611cf1565b565b5f60075f9054906101000a900473ffffffffffffffffffffffffffffffffffffffff16905090565b60606001805461134e90613284565b80601f016020809104026020016040519081016040528092919081815260200182805461137a90613284565b80156113c55780601f1061139c576101008083540402835291602001916113c5565b820191905f5260205f20905b8154815290600101906020018083116113a857829003601f168201915b5050505050905090565b6113e16113da61184c565b8383611db4565b5050565b6113f0848484610a90565b6114046113fb61184c565b85858585611f8d565b50505050565b6009602052805f5260405f205f915054906101000a900460ff1681565b60606114328261178d565b505f61143c612139565b90505f6114488461214f565b90505f82510361145c57809250505061149e565b5f81511115611490578181604051602001611478929190613afb565b6040516020818303038152906040529250505061149e565b611499846121f0565b925050505b919050565b600a602052805f5260405f205f91509050805f015f9054906101000a900473ffffffffffffffffffffffffffffffffffffffff1690806001015490806002015f9054906101000a900460ff16905083565b5f60055f8473ffffffffffffffffffffffffffffffffffffffff1673ffffffffffffffffffffffffffffffffffffffff1681526020019081526020015f205f8373ffffffffffffffffffffffffffffffffffffffff1673ffffffffffffffffffffffffffffffffffffffff1681526020019081526020015f205f9054906101000a900460ff16905092915050565b61158a611865565b5f73ffffffffffffffffffffffffffffffffffffffff168173ffffffffffffffffffffffffffffffffffffffff16036115fa575f6040517f1e4fbdf70000000000000000000000000000000000000000000000000000000081526004016115f19190612bf0565b60405180910390fd5b61160381611cf1565b50565b600b602052805f5260405f205f91509050805f01805461162590613284565b80601f016020809104026020016040519081016040528092919081815260200182805461165190613284565b801561169c5780601f106116735761010080835404028352916020019161169c565b820191905f5260205f20905b81548152906001019060200180831161167f57829003601f168201915b5050505050908060010154905082565b5f7f80ac58cd000000000000000000000000000000000000000000000000000000007bffffffffffffffffffffffffffffffffffffffffffffffffffffffff1916827bffffffffffffffffffffffffffffffffffffffffffffffffffffffff1916148061177657507f5b5e139f000000000000000000000000000000000000000000000000000000007bffffffffffffffffffffffffffffffffffffffffffffffffffffffff1916827bffffffffffffffffffffffffffffffffffffffffffffffffffffffff1916145b80611786575061178582612256565b5b9050919050565b5f5f61179883611b14565b90505f73ffffffffffffffffffffffffffffffffffffffff168173ffffffffffffffffffffffffffffffffffffffff160361180a57826040517f7e2732890000000000000000000000000000000000000000000000000000000081526004016118019190612e06565b60405180910390fd5b80915050919050565b5f60045f8381526020019081526020015f205f9054906101000a900473ffffffffffffffffffffffffffffffffffffffff169050919050565b5f33905090565b61186083838360016122bf565b505050565b61186d61184c565b73ffffffffffffffffffffffffffffffffffffffff1661188b611317565b73ffffffffffffffffffffffffffffffffffffffff16146118ea576118ae61184c565b6040517f118cdaa70000000000000000000000000000000000000000000000000000000081526004016118e19190612bf0565b60405180910390fd5b565b611905828260405180602001604052805f81525061247e565b5050565b5f5f61191484611b14565b90505f73ffffffffffffffffffffffffffffffffffffffff168373ffffffffffffffffffffffffffffffffffffffff1614611955576119548184866124a1565b5b5f73ffffffffffffffffffffffffffffffffffffffff168173ffffffffffffffffffffffffffffffffffffffff16146119e0576119945f855f5f6122bf565b600160035f8373ffffffffffffffffffffffffffffffffffffffff1673ffffffffffffffffffffffffffffffffffffffff1681526020019081526020015f205f82825403925050819055505b5f73ffffffffffffffffffffffffffffffffffffffff168573ffffffffffffffffffffffffffffffffffffffff1614611a5f57600160035f8773ffffffffffffffffffffffffffffffffffffffff1673ffffffffffffffffffffffffffffffffffffffff1681526020019081526020015f205f82825401925050819055505b8460025f8681526020019081526020015f205f6101000a81548173ffffffffffffffffffffffffffffffffffffffff021916908373ffffffffffffffffffffffffffffffffffffffff160217905550838573ffffffffffffffffffffffffffffffffffffffff168273ffffffffffffffffffffffffffffffffffffffff167fddf252ad1be2c89b69c2b068fc378daa952ba7f163c4a11628f55a4df523b3ef60405160405180910390a4809150509392505050565b5f60025f8381526020019081526020015f205f9054906101000a900473ffffffffffffffffffffffffffffffffffffffff169050919050565b611b55612564565b6002611b67611b626125a5565b6125ce565b5f0181905550565b5f73ffffffffffffffffffffffffffffffffffffffff168273ffffffffffffffffffffffffffffffffffffffff1603611bdf575f6040517f64a0ae92000000000000000000000000000000000000000000000000000000008152600401611bd69190612bf0565b60405180910390fd5b5f611beb83835f611909565b90505f73ffffffffffffffffffffffffffffffffffffffff168173ffffffffffffffffffffffffffffffffffffffff1603611c5d57816040517f7e273289000000000000000000000000000000000000000000000000000000008152600401611c549190612e06565b60405180910390fd5b8373ffffffffffffffffffffffffffffffffffffffff168173ffffffffffffffffffffffffffffffffffffffff1614611cd1578382826040517f64283d7b000000000000000000000000000000000000000000000000000000008152600401611cc89392919061371f565b60405180910390fd5b50505050565b6001611ce9611ce46125a5565b6125ce565b5f0181905550565b5f60075f9054906101000a900473ffffffffffffffffffffffffffffffffffffffff1690508160075f6101000a81548173ffffffffffffffffffffffffffffffffffffffff021916908373ffffffffffffffffffffffffffffffffffffffff1602179055508173ffffffffffffffffffffffffffffffffffffffff168173ffffffffffffffffffffffffffffffffffffffff167f8be0079c531659141344cd1fd0a4f28419497f9722a3daafe3b4186f6b6457e060405160405180910390a35050565b5f73ffffffffffffffffffffffffffffffffffffffff168373ffffffffffffffffffffffffffffffffffffffff1603611e24575f6040517fa9fbf51f000000000000000000000000000000000000000000000000000000008152600401611e1b9190612bf0565b60405180910390fd5b5f73ffffffffffffffffffffffffffffffffffffffff168273ffffffffffffffffffffffffffffffffffffffff1603611e9457816040517f5b08ba18000000000000000000000000000000000000000000000000000000008152600401611e8b9190612bf0565b60405180910390fd5b8060055f8573ffffffffffffffffffffffffffffffffffffffff1673ffffffffffffffffffffffffffffffffffffffff1681526020019081526020015f205f8473ffffffffffffffffffffffffffffffffffffffff1673ffffffffffffffffffffffffffffffffffffffff1681526020019081526020015f205f6101000a81548160ff0219169083151502179055508173ffffffffffffffffffffffffffffffffffffffff168373ffffffffffffffffffffffffffffffffffffffff167f17307eab39ab6107e8899845ad3d59bd9653f200f220920489ca2b5937696c3183604051611f809190612add565b60405180910390a3505050565b5f8373ffffffffffffffffffffffffffffffffffffffff163b1115612132578273ffffffffffffffffffffffffffffffffffffffff1663150b7a02868685856040518563ffffffff1660e01b8152600401611feb9493929190613b70565b6020604051808303815f875af192505050801561202657506040513d601f19601f820116820180604052508101906120239190613bce565b60015b6120a7573d805f8114612054576040519150601f19603f3d011682016040523d82523d5f602084013e612059565b606091505b505f81510361209f57836040517f64a0ae920000000000000000000000000000000000000000000000000000000081526004016120969190612bf0565b60405180910390fd5b805160208201fd5b63150b7a0260e01b7bffffffffffffffffffffffffffffffffffffffffffffffffffffffff1916817bffffffffffffffffffffffffffffffffffffffffffffffffffffffff19161461213057836040517f64a0ae920000000000000000000000000000000000000000000000000000000081526004016121279190612bf0565b60405180910390fd5b505b5050505050565b606060405180602001604052805f815250905090565b606060065f8381526020019081526020015f20805461216d90613284565b80601f016020809104026020016040519081016040528092919081815260200182805461219990613284565b80156121e45780601f106121bb576101008083540402835291602001916121e4565b820191905f5260205f20905b8154815290600101906020018083116121c757829003601f168201915b50505050509050919050565b60606121fb8261178d565b505f612205612139565b90505f8151116122235760405180602001604052805f81525061224e565b8061222d846125d7565b60405160200161223e929190613afb565b6040516020818303038152906040525b915050919050565b5f7f01ffc9a7000000000000000000000000000000000000000000000000000000007bffffffffffffffffffffffffffffffffffffffffffffffffffffffff1916827bffffffffffffffffffffffffffffffffffffffffffffffffffffffff1916149050919050565b80806122f757505f73ffffffffffffffffffffffffffffffffffffffff168273ffffffffffffffffffffffffffffffffffffffff1614155b15612429575f6123068461178d565b90505f73ffffffffffffffffffffffffffffffffffffffff168373ffffffffffffffffffffffffffffffffffffffff161415801561237057508273ffffffffffffffffffffffffffffffffffffffff168173ffffffffffffffffffffffffffffffffffffffff1614155b8015612383575061238181846114f4565b155b156123c557826040517fa9fbf51f0000000000000000000000000000000000000000000000000000000081526004016123bc9190612bf0565b60405180910390fd5b811561242757838573ffffffffffffffffffffffffffffffffffffffff168273ffffffffffffffffffffffffffffffffffffffff167f8c5be1e5ebec7d5bd14f71427d1e84f3dd0314c0f7b2291e5b200ac8c7c3b92560405160405180910390a45b505b8360045f8581526020019081526020015f205f6101000a81548173ffffffffffffffffffffffffffffffffffffffff021916908373ffffffffffffffffffffffffffffffffffffffff16021790555050505050565b61248883836126a1565b61249c61249361184c565b5f858585611f8d565b505050565b6124ac838383612794565b61255f575f73ffffffffffffffffffffffffffffffffffffffff168373ffffffffffffffffffffffffffffffffffffffff160361252057806040517f7e2732890000000000000000000000000000000000000000000000000000000081526004016125179190612e06565b60405180910390fd5b81816040517f177e802f000000000000000000000000000000000000000000000000000000008152600401612556929190613bf9565b60405180910390fd5b505050565b61256c612854565b156125a3576040517f3ee5aeb500000000000000000000000000000000000000000000000000000000815260040160405180910390fd5b565b5f7f9b779b17422d0df92223018b32b4d1fa46e071723d6817e2486d003becc55f005f1b905090565b5f819050919050565b60605f60016125e584612870565b0190505f8167ffffffffffffffff81111561260357612602612c79565b5b6040519080825280601f01601f1916602001820160405280156126355781602001600182028036833780820191505090505b5090505f82602083010190505b600115612696578080600190039150507f3031323334353637383961626364656600000000000000000000000000000000600a86061a8153600a858161268b5761268a613c20565b5b0494505f8503612642575b819350505050919050565b5f73ffffffffffffffffffffffffffffffffffffffff168273ffffffffffffffffffffffffffffffffffffffff1603612711575f6040517f64a0ae920000000000000000000000000000000000000000000000000000000081526004016127089190612bf0565b60405180910390fd5b5f61271d83835f611909565b90505f73ffffffffffffffffffffffffffffffffffffffff168173ffffffffffffffffffffffffffffffffffffffff161461278f575f6040517f73c6ac6e0000000000000000000000000000000000000000000000000000000081526004016127869190612bf0565b60405180910390fd5b505050565b5f5f73ffffffffffffffffffffffffffffffffffffffff168373ffffffffffffffffffffffffffffffffffffffff161415801561284b57508273ffffffffffffffffffffffffffffffffffffffff168473ffffffffffffffffffffffffffffffffffffffff16148061280c575061280b84846114f4565b5b8061284a57508273ffffffffffffffffffffffffffffffffffffffff1661283283611813565b73ffffffffffffffffffffffffffffffffffffffff16145b5b90509392505050565b5f60026128676128626125a5565b6125ce565b5f015414905090565b5f5f5f90507a184f03e93ff9f4daa797ed6e38ed64bf6a1f01000000000000000083106128cc577a184f03e93ff9f4daa797ed6e38ed64bf6a1f01000000000000000083816128c2576128c1613c20565b5b0492506040810190505b6d04ee2d6d415b85acef81000000008310612909576d04ee2d6d415b85acef810000000083816128ff576128fe613c20565b5b0492506020810190505b662386f26fc10000831061293857662386f26fc10000838161292e5761292d613c20565b5b0492506010810190505b6305f5e1008310612961576305f5e100838161295757612956613c20565b5b0492506008810190505b612710831061298657612710838161297c5761297b613c20565b5b0492506004810190505b606483106129a9576064838161299f5761299e613c20565b5b0492506002810190505b600a83106129b8576001810190505b80915050919050565b5f604051905090565b5f5ffd5b5f5ffd5b5f819050919050565b6129e4816129d2565b81146129ee575f5ffd5b50565b5f813590506129ff816129db565b92915050565b5f5f60408385031215612a1b57612a1a6129ca565b5b5f612a28858286016129f1565b9250506020612a39858286016129f1565b9150509250929050565b5f7fffffffff0000000000000000000000000000000000000000000000000000000082169050919050565b612a7781612a43565b8114612a81575f5ffd5b50565b5f81359050612a9281612a6e565b92915050565b5f60208284031215612aad57612aac6129ca565b5b5f612aba84828501612a84565b91505092915050565b5f8115159050919050565b612ad781612ac3565b82525050565b5f602082019050612af05f830184612ace565b92915050565b5f81519050919050565b5f82825260208201905092915050565b8281835e5f83830152505050565b5f601f19601f8301169050919050565b5f612b3882612af6565b612b428185612b00565b9350612b52818560208601612b10565b612b5b81612b1e565b840191505092915050565b5f6020820190508181035f830152612b7e8184612b2e565b905092915050565b5f60208284031215612b9b57612b9a6129ca565b5b5f612ba8848285016129f1565b91505092915050565b5f73ffffffffffffffffffffffffffffffffffffffff82169050919050565b5f612bda82612bb1565b9050919050565b612bea81612bd0565b82525050565b5f602082019050612c035f830184612be1565b92915050565b612c1281612bd0565b8114612c1c575f5ffd5b50565b5f81359050612c2d81612c09565b92915050565b5f5f60408385031215612c4957612c486129ca565b5b5f612c5685828601612c1f565b9250506020612c67858286016129f1565b9150509250929050565b5f5ffd5b5f5ffd5b7f4e487b71000000000000000000000000000000000000000000000000000000005f52604160045260245ffd5b612caf82612b1e565b810181811067ffffffffffffffff82111715612cce57612ccd612c79565b5b80604052505050565b5f612ce06129c1565b9050612cec8282612ca6565b919050565b5f67ffffffffffffffff821115612d0b57612d0a612c79565b5b612d1482612b1e565b9050602081019050919050565b828183375f83830152505050565b5f612d41612d3c84612cf1565b612cd7565b905082815260208101848484011115612d5d57612d5c612c75565b5b612d68848285612d21565b509392505050565b5f82601f830112612d8457612d83612c71565b5b8135612d94848260208601612d2f565b91505092915050565b5f5f60408385031215612db357612db26129ca565b5b5f612dc085828601612c1f565b925050602083013567ffffffffffffffff811115612de157612de06129ce565b5b612ded85828601612d70565b9150509250929050565b612e00816129d2565b82525050565b5f602082019050612e195f830184612df7565b92915050565b5f5f5f60608486031215612e3657612e356129ca565b5b5f612e4386828701612c1f565b9350506020612e5486828701612c1f565b9250506040612e65868287016129f1565b9150509250925092565b5f60208284031215612e8457612e836129ca565b5b5f612e9184828501612c1f565b91505092915050565b612ea381612ac3565b8114612ead575f5ffd5b50565b5f81359050612ebe81612e9a565b92915050565b5f5f60408385031215612eda57612ed96129ca565b5b5f612ee785828601612c1f565b9250506020612ef885828601612eb0565b9150509250929050565b5f67ffffffffffffffff821115612f1c57612f1b612c79565b5b612f2582612b1e565b9050602081019050919050565b5f612f44612f3f84612f02565b612cd7565b905082815260208101848484011115612f6057612f5f612c75565b5b612f6b848285612d21565b509392505050565b5f82601f830112612f8757612f86612c71565b5b8135612f97848260208601612f32565b91505092915050565b5f5f5f5f60808587031215612fb857612fb76129ca565b5b5f612fc587828801612c1f565b9450506020612fd687828801612c1f565b9350506040612fe7878288016129f1565b925050606085013567ffffffffffffffff811115613008576130076129ce565b5b61301487828801612f73565b91505092959194509250565b5f819050919050565b61303281613020565b811461303c575f5ffd5b50565b5f8135905061304d81613029565b92915050565b5f60208284031215613068576130676129ca565b5b5f6130758482850161303f565b91505092915050565b5f6060820190506130915f830186612be1565b61309e6020830185612df7565b6130ab6040830184612ace565b949350505050565b5f5f604083850312156130c9576130c86129ca565b5b5f6130d685828601612c1f565b92505060206130e785828601612c1f565b9150509250929050565b5f6040820190508181035f8301526131098185612b2e565b90506131186020830184612df7565b9392505050565b7f4e6f742073656c6c6572000000000000000000000000000000000000000000005f82015250565b5f613153600a83612b00565b915061315e8261311f565b602082019050919050565b5f6020820190508181035f83015261318081613147565b9050919050565b7f4c697374696e67206e6f742061637469766500000000000000000000000000005f82015250565b5f6131bb601283612b00565b91506131c682613187565b602082019050919050565b5f6020820190508181035f8301526131e8816131af565b9050919050565b7f496e76616c6964207072696365000000000000000000000000000000000000005f82015250565b5f613223600d83612b00565b915061322e826131ef565b602082019050919050565b5f6020820190508181035f83015261325081613217565b9050919050565b7f4e487b71000000000000000000000000000000000000000000000000000000005f52602260045260245ffd5b5f600282049050600182168061329b57607f821691505b6020821081036132ae576132ad613257565b5b50919050565b7f496e76616c6964206f776e6572206164647265737300000000000000000000005f82015250565b5f6132e8601583612b00565b91506132f3826132b4565b602082019050919050565b5f6020820190508181035f830152613315816132dc565b9050919050565b7f506879736963616c2061646472657373206973207265717569726564000000005f82015250565b5f613350601c83612b00565b915061335b8261331c565b602082019050919050565b5f6020820190508181035f83015261337d81613344565b9050919050565b5f81905092915050565b5f61339882612af6565b6133a28185613384565b93506133b2818560208601612b10565b80840191505092915050565b5f6133c9828461338e565b915081905092915050565b7f50726f706572747920616c7265616479206578697374730000000000000000005f82015250565b5f613408601783612b00565b9150613413826133d4565b602082019050919050565b5f6020820190508181035f830152613435816133fc565b9050919050565b7f4e487b71000000000000000000000000000000000000000000000000000000005f52601160045260245ffd5b5f613473826129d2565b91507fffffffffffffffffffffffffffffffffffffffffffffffffffffffffffffffff82036134a5576134a461343c565b5b600182019050919050565b5f819050815f5260205f209050919050565b5f6020601f8301049050919050565b5f82821b905092915050565b5f6008830261350c7fffffffffffffffffffffffffffffffffffffffffffffffffffffffffffffffff826134d1565b61351686836134d1565b95508019841693508086168417925050509392505050565b5f819050919050565b5f61355161354c613547846129d2565b61352e565b6129d2565b9050919050565b5f819050919050565b61356a83613537565b61357e61357682613558565b8484546134dd565b825550505050565b5f5f905090565b613595613586565b6135a0818484613561565b505050565b5b818110156135c3576135b85f8261358d565b6001810190506135a6565b5050565b601f821115613608576135d9816134b0565b6135e2846134c2565b810160208510156135f1578190505b6136056135fd856134c2565b8301826135a5565b50505b505050565b5f82821c905092915050565b5f6136285f198460080261360d565b1980831691505092915050565b5f6136408383613619565b9150826002028217905092915050565b61365982612af6565b67ffffffffffffffff81111561367257613671612c79565b5b61367c8254613284565b6136878282856135c7565b5f60209050601f8311600181146136b8575f84156136a6578287015190505b6136b08582613635565b865550613717565b601f1984166136c6866134b0565b5f5b828110156136ed578489015182556001820191506020850194506020810190506136c8565b8683101561370a5784890151613706601f891682613619565b8355505b6001600288020188555050505b505050505050565b5f6060820190506137325f830186612be1565b61373f6020830185612df7565b61374c6040830184612be1565b949350505050565b7f4e6f74206f776e657200000000000000000000000000000000000000000000005f82015250565b5f613788600983612b00565b915061379382613754565b602082019050919050565b5f6020820190508181035f8301526137b58161377c565b9050919050565b7f5072696365206d7573742062652067726561746572207468616e2030000000005f82015250565b5f6137f0601c83612b00565b91506137fb826137bc565b602082019050919050565b5f6020820190508181035f83015261381d816137e4565b9050919050565b7f4d61726b6574706c616365206e6f7420617070726f76656400000000000000005f82015250565b5f613858601883612b00565b915061386382613824565b602082019050919050565b5f6020820190508181035f8301526138858161384c565b9050919050565b7f50726f7065727479206e6f7420666f722073616c6500000000000000000000005f82015250565b5f6138c0601583612b00565b91506138cb8261388c565b602082019050919050565b5f6020820190508181035f8301526138ed816138b4565b9050919050565b7f496e636f7272656374207061796d656e740000000000000000000000000000005f82015250565b5f613928601183612b00565b9150613933826138f4565b602082019050919050565b5f6020820190508181035f8301526139558161391c565b9050919050565b7f53656c6c65722063616e6e6f7420627579207468656972206f776e2070726f705f8201527f6572747900000000000000000000000000000000000000000000000000000000602082015250565b5f6139b6602483612b00565b91506139c18261395c565b604082019050919050565b5f6020820190508181035f8301526139e3816139aa565b9050919050565b7f53656c6c6572206e6f206c6f6e676572206f776e732070726f706572747900005f82015250565b5f613a1e601e83612b00565b9150613a29826139ea565b602082019050919050565b5f6020820190508181035f830152613a4b81613a12565b9050919050565b5f81905092915050565b50565b5f613a6a5f83613a52565b9150613a7582613a5c565b5f82019050919050565b5f613a8982613a5f565b9150819050919050565b7f455448207472616e73666572206661696c6564000000000000000000000000005f82015250565b5f613ac7601383612b00565b9150613ad282613a93565b602082019050919050565b5f6020820190508181035f830152613af481613abb565b9050919050565b5f613b06828561338e565b9150613b12828461338e565b91508190509392505050565b5f81519050919050565b5f82825260208201905092915050565b5f613b4282613b1e565b613b4c8185613b28565b9350613b5c818560208601612b10565b613b6581612b1e565b840191505092915050565b5f608082019050613b835f830187612be1565b613b906020830186612be1565b613b9d6040830185612df7565b8181036060830152613baf8184613b38565b905095945050505050565b5f81519050613bc881612a6e565b92915050565b5f60208284031215613be357613be26129ca565b5b5f613bf084828501613bba565b91505092915050565b5f604082019050613c0c5f830185612be1565b613c196020830184612df7565b9392505050565b7f4e487b71000000000000000000000000000000000000000000000000000000005f52601260045260245ffdfea2646970667358221220b1a25d813f3979bd59f5271d60c72d98778eb1149a7d81f08afe427eb67c75e664736f6c634300081c0033",
  "linkReferences": {},
  "deployedLinkReferences": {},
  "immutableReferences": {},
  "inputSourceName": "project/contracts/PropertyNFT.sol",
  "buildInfoId": "solc-0_8_28-240ecfc0ccb130574579e0f8aac5cf1f7da44510"
}