{
  "_format": "hh3-artifact-1",
  "contractName": "PropertyNFT",
  "sourceName": "contracts/PropertyNFT.sol",
  "abi": [
    {
      "inputs": [],
      "stateMutability": "nonpayable",
      "type": "constructor"
    },
    {
      "inputs": [
        {
          "internalType": "address",
          "name": "sender",
          "type": "address"
        },
        {
          "internalType": "uint256",
          "name": "tokenId",
          "type": "uint256"
        },
        {
          "internalType": "address",
          "name": "owner",
          "type": "address"
        }
      ],
      "name": "ERC721IncorrectOwner",
      "type": "error"
    },
    {
      "inputs": [
        {
          "internalType": "address",
          "name": "operator",
          "type": "address"
        },
        {
          "internalType": "uint256",
          "name": "tokenId",
          "type": "uint256"
        }
      ],
      "name": "ERC721InsufficientApproval",
      "type": "error"
    },
    {
      "inputs": [
        {
          "internalType": "address",
          "name": "approver",
          "type": "address"
        }
      ],
      "name": "ERC721InvalidApprover",
      "type": "error"
    },
    {
      "inputs": [
        {
          "internalType": "address",
          "name": "operator",
          "type": "address"
        }
      ],
      "name": "ERC721InvalidOperator",
      "type": "error"
    },
    {
      "inputs": [
        {
          "internalType": "address",
          "name": "owner",
          "type": "address"
        }
      ],
      "name": "ERC721InvalidOwner",
      "type": "error"
    },
    {
      "inputs": [
        {
          "internalType": "address",
          "name": "receiver",
          "type": "address"
        }
      ],
      "name": "ERC721InvalidReceiver",
      "type": "error"
    },
    {
      "inputs": [
        {
          "internalType": "address",
          "name": "sender",
          "type": "address"
        }
      ],
      "name": "ERC721InvalidSender",
      "type": "error"
    },
    {
      "inputs": [
        {
          "internalType": "uint256",
          "name": "tokenId",
          "type": "uint256"
        }
      ],
      "name": "ERC721NonexistentToken",
      "type": "error"
    },
    {
      "inputs": [
        {
          "internalType": "address",
          "name": "owner",
          "type": "address"
        }
      ],
      "name": "OwnableInvalidOwner",
      "type": "error"
    },
    {
      "inputs": [
        {
          "internalType": "address",
          "name": "account",
          "type": "address"
        }
      ],
      "name": "OwnableUnauthorizedAccount",
      "type": "error"
    },
    {
      "anonymous": false,
      "inputs": [
        {
          "indexed": true,
          "internalType": "address",
          "name": "owner",
          "type": "address"
        },
        {
          "indexed": true,
          "internalType": "address",
          "name": "approved",
          "type": "address"
        },
        {
          "indexed": true,
          "internalType": "uint256",
          "name": "tokenId",
          "type": "uint256"
        }
      ],
      "name": "Approval",
      "type": "event"
    },
    {
      "anonymous": false,
      "inputs": [
        {
          "indexed": true,
          "internalType": "address",
          "name": "owner",
          "type": "address"
        },
        {
          "indexed": true,
          "internalType": "address",
          "name": "operator",
          "type": "address"
        },
        {
          "indexed": false,
          "internalType": "bool",
          "name": "approved",
          "type": "bool"
        }
      ],
      "name": "ApprovalForAll",
      "type": "event"
    },
    {
      "anonymous": false,
      "inputs": [
        {
          "indexed": false,
          "internalType": "uint256",
          "name": "_fromTokenId",
          "type": "uint256"
        },
        {
          "indexed": false,
          "internalType": "uint256",
          "name": "_toTokenId",
          "type": "uint256"
        }
      ],
      "name": "BatchMetadataUpdate",
      "type": "event"
    },
    {
      "anonymous": false,
      "inputs": [
        {
          "indexed": false,
          "internalType": "uint256",
          "name": "_tokenId",
          "type": "uint256"
        }
      ],
      "name": "MetadataUpdate",
      "type": "event"
    },
    {
      "anonymous": false,
      "inputs": [
        {
          "indexed": true,
          "internalType": "address",
          "name": "previousOwner",
          "type": "address"
        },
        {
          "indexed": true,
          "internalType": "address",
          "name": "newOwner",
          "type": "address"
        }
      ],
      "name": "OwnershipTransferred",
      "type": "event"
    },
    {
      "anonymous": false,
      "inputs": [
        {
          "indexed": true,
          "internalType": "uint256",
          "name": "tokenId",
          "type": "uint256"
        },
        {
          "indexed": true,
          "internalType": "address",
          "name": "owner",
          "type": "address"
        },
        {
          "indexed": false,
          "internalType": "string",
          "name": "physicalAddress",
          "type": "string"
        }
      ],
      "name": "PropertyMinted",
      "type": "event"
    },
    {
      "anonymous": false,
      "inputs": [
        {
          "indexed": true,
          "internalType": "address",
          "name": "from",
          "type": "address"
        },
        {
          "indexed": true,
          "internalType": "address",
          "name": "to",
          "type": "address"
        },
        {
          "indexed": true,
          "internalType": "uint256",
          "name": "tokenId",
          "type": "uint256"
        }
      ],
      "name": "Transfer",
      "type": "event"
    },
    {
      "inputs": [
        {
          "internalType": "address",
          "name": "to",
          "type": "address"
        },
        {
          "internalType": "uint256",
          "name": "tokenId",
          "type": "uint256"
        }
      ],
      "name": "approve",
      "outputs": [],
      "stateMutability": "nonpayable",
      "type": "function"
    },
    {
      "inputs": [
        {
          "internalType": "address",
          "name": "owner",
          "type": "address"
        }
      ],
      "name": "balanceOf",
      "outputs": [
        {
          "internalType": "uint256",
          "name": "",
          "type": "uint256"
        }
      ],
      "stateMutability": "view",
      "type": "function"
    },
    {
      "inputs": [
        {
          "internalType": "uint256",
          "name": "tokenId",
          "type": "uint256"
        }
      ],
      "name": "getApproved",
      "outputs": [
        {
          "internalType": "address",
          "name": "",
          "type": "address"
        }
      ],
      "stateMutability": "view",
      "type": "function"
    },
    {
      "inputs": [
        {
          "internalType": "address",
          "name": "owner",
          "type": "address"
        },
        {
          "internalType": "address",
          "name": "operator",
          "type": "address"
        }
      ],
      "name": "isApprovedForAll",
      "outputs": [
        {
          "internalType": "bool",
          "name": "",
          "type": "bool"
        }
      ],
      "stateMutability": "view",
      "type": "function"
    },
    {
      "inputs": [
        {
          "internalType": "address",
          "name": "owner",
          "type": "address"
        },
        {
          "internalType": "string",
          "name": "physicalAddress",
          "type": "string"
        },
        {
          "internalType": "string",
          "name": "tokenURI",
          "type": "string"
        }
      ],
      "name": "mintProperty",
      "outputs": [
        {
          "internalType": "uint256",
          "name": "",
          "type": "uint256"
        }
      ],
      "stateMutability": "nonpayable",
      "type": "function"
    },
    {
      "inputs": [],
      "name": "name",
      "outputs": [
        {
          "internalType": "string",
          "name": "",
          "type": "string"
        }
      ],
      "stateMutability": "view",
      "type": "function"
    },
    {
      "inputs": [],
      "name": "owner",
      "outputs": [
        {
          "internalType": "address",
          "name": "",
          "type": "address"
        }
      ],
      "stateMutability": "view",
      "type": "function"
    },
    {
      "inputs": [
        {
          "internalType": "uint256",
          "name": "tokenId",
          "type": "uint256"
        }
      ],
      "name": "ownerOf",
      "outputs": [
        {
          "internalType": "address",
          "name": "",
          "type": "address"
        }
      ],
      "stateMutability": "view",
      "type": "function"
    },
    {
      "inputs": [
        {
          "internalType": "uint256",
          "name": "",
          "type": "uint256"
        }
      ],
      "name": "properties",
      "outputs": [
        {
          "internalType": "string",
          "name": "physicalAddress",
          "type": "string"
        },
        {
          "internalType": "uint256",
          "name": "tokenId",
          "type": "uint256"
        },
        {
          "internalType": "address",
          "name": "owner",
          "type": "address"
        }
      ],
      "stateMutability": "view",
      "type": "function"
    },
    {
      "inputs": [
        {
          "internalType": "bytes32",
          "name": "",
          "type": "bytes32"
        }
      ],
      "name": "propertyExists",
      "outputs": [
        {
          "internalType": "bool",
          "name": "",
          "type": "bool"
        }
      ],
      "stateMutability": "view",
      "type": "function"
    },
    {
      "inputs": [],
      "name": "renounceOwnership",
      "outputs": [],
      "stateMutability": "nonpayable",
      "type": "function"
    },
    {
      "inputs": [
        {
          "internalType": "address",
          "name": "from",
          "type": "address"
        },
        {
          "internalType": "address",
          "name": "to",
          "type": "address"
        },
        {
          "internalType": "uint256",
          "name": "tokenId",
          "type": "uint256"
        }
      ],
      "name": "safeTransferFrom",
      "outputs": [],
      "stateMutability": "nonpayable",
      "type": "function"
    },
    {
      "inputs": [
        {
          "internalType": "address",
          "name": "from",
          "type": "address"
        },
        {
          "internalType": "address",
          "name": "to",
          "type": "address"
        },
        {
          "internalType": "uint256",
          "name": "tokenId",
          "type": "uint256"
        },
        {
          "internalType": "bytes",
          "name": "data",
          "type": "bytes"
        }
      ],
      "name": "safeTransferFrom",
      "outputs": [],
      "stateMutability": "nonpayable",
      "type": "function"
    },
    {
      "inputs": [
        {
          "internalType": "address",
          "name": "operator",
          "type": "address"
        },
        {
          "internalType": "bool",
          "name": "approved",
          "type": "bool"
        }
      ],
      "name": "setApprovalForAll",
      "outputs": [],
      "stateMutability": "nonpayable",
      "type": "function"
    },
    {
      "inputs": [
        {
          "internalType": "bytes4",
          "name": "interfaceId",
          "type": "bytes4"
        }
      ],
      "name": "supportsInterface",
      "outputs": [
        {
          "internalType": "bool",
          "name": "",
          "type": "bool"
        }
      ],
      "stateMutability": "view",
      "type": "function"
    },
    {
      "inputs": [],
      "name": "symbol",
      "outputs": [
        {
          "internalType": "string",
          "name": "",
          "type": "string"
        }
      ],
      "stateMutability": "view",
      "type": "function"
    },
    {
      "inputs": [
        {
          "internalType": "uint256",
          "name": "tokenId",
          "type": "uint256"
        }
      ],
      "name": "tokenURI",
      "outputs": [
        {
          "internalType": "string",
          "name": "",
          "type": "string"
        }
      ],
      "stateMutability": "view",
      "type": "function"
    },
    {
      "inputs": [
        {
          "internalType": "address",
          "name": "from",
          "type": "address"
        },
        {
          "internalType": "address",
          "name": "to",
          "type": "address"
        },
        {
          "internalType": "uint256",
          "name": "tokenId",
          "type": "uint256"
        }
      ],
      "name": "transferFrom",
      "outputs": [],
      "stateMutability": "nonpayable",
      "type": "function"
    },
    {
      "inputs": [
        {
          "internalType": "address",
          "name": "newOwner",
          "type": "address"
        }
      ],
      "name": "transferOwnership",
      "outputs": [],
      "stateMutability": "nonpayable",
      "type": "function"
    }
  ],
  "bytecode": "0x60806040526001600855348015610014575f5ffd5b50336040518060400160405280600b81526020016a141c9bdc195c9d1e53919560aa1b81525060405180604001604052806004815260200163050524f560e41b815250815f9081610065919061019a565b506001610072828261019a565b5050506001600160a01b0381166100a257604051631e4fbdf760e01b81525f600482015260240160405180910390fd5b6100ab816100b1565b50610254565b600780546001600160a01b038381166001600160a01b0319831681179093556040519116919082907f8be0079c531659141344cd1fd0a4f28419497f9722a3daafe3b4186f6b6457e0905f90a35050565b634e487b7160e01b5f52604160045260245ffd5b600181811c9082168061012a57607f821691505b60208210810361014857634e487b7160e01b5f52602260045260245ffd5b50919050565b601f82111561019557805f5260205f20601f840160051c810160208510156101735750805b601f840160051c820191505b81811015610192575f815560010161017f565b50505b505050565b81516001600160401b038111156101b3576101b3610102565b6101c7816101c18454610116565b8461014e565b6020601f8211600181146101f9575f83156101e25750848201515b5f19600385901b1c1916600184901b178455610192565b5f84815260208120601f198516915b828110156102285787850151825560209485019460019092019101610208565b508482101561024557868401515f19600387901b60f8161c191681555b50505050600190811b01905550565b611783806102615f395ff3fe608060405234801561000f575f5ffd5b506004361061011c575f3560e01c8063715018a6116100a9578063b8be73de1161006e578063b8be73de14610251578063c87b56dd14610273578063e985e9c514610286578063f2fde38b14610299578063f7b10808146102ac575f5ffd5b8063715018a61461020a5780638da5cb5b1461021257806395d89b4114610223578063a22cb4651461022b578063b88d4fde1461023e575f5ffd5b806323b872dd116100ef57806323b872dd1461019d57806342842e0e146101b05780636352211e146101c35780636e777dd8146101d657806370a08231146101f7575f5ffd5b806301ffc9a71461012057806306fdde0314610148578063081812fc1461015d578063095ea7b314610188575b5f5ffd5b61013361012e36600461122d565b6102ce565b60405190151581526020015b60405180910390f35b6101506102f8565b60405161013f9190611276565b61017061016b366004611288565b610387565b6040516001600160a01b03909116815260200161013f565b61019b6101963660046112ba565b6103ae565b005b61019b6101ab3660046112e2565b6103bd565b61019b6101be3660046112e2565b61044b565b6101706101d1366004611288565b61046a565b6101e96101e43660046113c5565b610474565b60405190815260200161013f565b6101e9610205366004611439565b6106df565b61019b610724565b6007546001600160a01b0316610170565b610150610737565b61019b610239366004611452565b610746565b61019b61024c36600461148b565b610751565b61013361025f366004611288565b60096020525f908152604090205460ff1681565b610150610281366004611288565b610769565b610133610294366004611502565b6107ea565b61019b6102a7366004611439565b610817565b6102bf6102ba366004611288565b610854565b60405161013f93929190611533565b5f6001600160e01b03198216632483248360e11b14806102f257506102f282610905565b92915050565b60605f805461030690611565565b80601f016020809104026020016040519081016040528092919081815260200182805461033290611565565b801561037d5780601f106103545761010080835404028352916020019161037d565b820191905f5260205f20905b81548152906001019060200180831161036057829003601f168201915b5050505050905090565b5f61039182610954565b505f828152600460205260409020546001600160a01b03166102f2565b6103b982823361098c565b5050565b6001600160a01b0382166103eb57604051633250574960e11b81525f60048201526024015b60405180910390fd5b5f6103f7838333610999565b9050836001600160a01b0316816001600160a01b031614610445576040516364283d7b60e01b81526001600160a01b03808616600483015260248201849052821660448201526064016103e2565b50505050565b61046583838360405180602001604052805f815250610751565b505050565b5f6102f282610954565b5f61047d610a8b565b6001600160a01b0384166104cb5760405162461bcd60e51b8152602060048201526015602482015274496e76616c6964206f776e6572206164647265737360581b60448201526064016103e2565b5f83511161051b5760405162461bcd60e51b815260206004820152601c60248201527f506879736963616c20616464726573732069732072657175697265640000000060448201526064016103e2565b5f8251116105635760405162461bcd60e51b8152602060048201526015602482015274151bdad95b88155492481a5cc81c995c5d5a5c9959605a1b60448201526064016103e2565b5f8360405160200161057591906115b4565b60408051601f1981840301815291815281516020928301205f818152600990935291205490915060ff16156105ec5760405162461bcd60e51b815260206004820152601760248201527f50726f706572747920616c72656164792065786973747300000000000000000060448201526064016103e2565b600880549081905f6105fd836115bf565b919050555061060c8682610ab8565b6106168185610ad1565b5f828152600960209081526040808320805460ff1916600117905580516060810182528881528083018590526001600160a01b038a1681830152848452600a909252909120815181906106699082611627565b5060208201516001820155604091820151600290910180546001600160a01b0319166001600160a01b0392831617905590519087169082907f0d6a75679ec9091a61a3192722f7073bfdf34a0e67c61c08484adef28bfa375a906106ce908990611276565b60405180910390a395945050505050565b5f6001600160a01b038216610709576040516322718ad960e21b81525f60048201526024016103e2565b506001600160a01b03165f9081526003602052604090205490565b61072c610a8b565b6107355f610b20565b565b60606001805461030690611565565b6103b9338383610b71565b61075c8484846103bd565b6104453385858585610c38565b606061077482610954565b505f61078a60408051602081019091525f815290565b90505f61079684610d60565b905081515f036107a7579392505050565b8051156107d95781816040516020016107c19291906116e2565b60405160208183030381529060405292505050919050565b6107e284610dff565b949350505050565b6001600160a01b039182165f90815260056020908152604080832093909416825291909152205460ff1690565b61081f610a8b565b6001600160a01b03811661084857604051631e4fbdf760e01b81525f60048201526024016103e2565b61085181610b20565b50565b600a6020525f908152604090208054819061086e90611565565b80601f016020809104026020016040519081016040528092919081815260200182805461089a90611565565b80156108e55780601f106108bc576101008083540402835291602001916108e5565b820191905f5260205f20905b8154815290600101906020018083116108c857829003601f168201915b5050505060018301546002909301549192916001600160a01b0316905083565b5f6001600160e01b031982166380ac58cd60e01b148061093557506001600160e01b03198216635b5e139f60e01b145b806102f257506301ffc9a760e01b6001600160e01b03198316146102f2565b5f818152600260205260408120546001600160a01b0316806102f257604051637e27328960e01b8152600481018490526024016103e2565b6104658383836001610e70565b5f828152600260205260408120546001600160a01b03908116908316156109c5576109c5818486610f74565b6001600160a01b038116156109ff576109e05f855f5f610e70565b6001600160a01b0381165f90815260036020526040902080545f190190555b6001600160a01b03851615610a2d576001600160a01b0385165f908152600360205260409020805460010190555b5f8481526002602052604080822080546001600160a01b0319166001600160a01b0389811691821790925591518793918516917fddf252ad1be2c89b69c2b068fc378daa952ba7f163c4a11628f55a4df523b3ef91a4949350505050565b6007546001600160a01b031633146107355760405163118cdaa760e01b81523360048201526024016103e2565b6103b9828260405180602001604052805f815250610fd8565b5f828152600660205260409020610ae88282611627565b506040518281527ff8e1a15aba9398e019f0b49df1a4fde98ee17ae345cb5f6b5e2c27f5033e8ce79060200160405180910390a15050565b600780546001600160a01b038381166001600160a01b0319831681179093556040519116919082907f8be0079c531659141344cd1fd0a4f28419497f9722a3daafe3b4186f6b6457e0905f90a35050565b6001600160a01b038316610b9a5760405163a9fbf51f60e01b81525f60048201526024016103e2565b6001600160a01b038216610bcc57604051630b61174360e31b81526001600160a01b03831660048201526024016103e2565b6001600160a01b038381165f81815260056020908152604080832094871680845294825291829020805460ff191686151590811790915591519182527f17307eab39ab6107e8899845ad3d59bd9653f200f220920489ca2b5937696c31910160405180910390a3505050565b6001600160a01b0383163b15610d5957604051630a85bd0160e11b81526001600160a01b0384169063150b7a0290610c7a9088908890879087906004016116f6565b6020604051808303815f875af1925050508015610cb4575060408051601f3d908101601f19168201909252610cb191810190611732565b60015b610d1b573d808015610ce1576040519150601f19603f3d011682016040523d82523d5f602084013e610ce6565b606091505b5080515f03610d1357604051633250574960e11b81526001600160a01b03851660048201526024016103e2565b805160208201fd5b6001600160e01b03198116630a85bd0160e11b14610d5757604051633250574960e11b81526001600160a01b03851660048201526024016103e2565b505b5050505050565b5f818152600660205260409020805460609190610d7c90611565565b80601f0160208091040260200160405190810160405280929190818152602001828054610da890611565565b8015610df35780601f10610dca57610100808354040283529160200191610df3565b820191905f5260205f20905b815481529060010190602001808311610dd657829003601f168201915b50505050509050919050565b6060610e0a82610954565b505f610e2060408051602081019091525f815290565b90505f815111610e3e5760405180602001604052805f815250610e69565b80610e4884610fef565b604051602001610e599291906116e2565b6040516020818303038152906040525b9392505050565b8080610e8457506001600160a01b03821615155b15610f45575f610e9384610954565b90506001600160a01b03831615801590610ebf5750826001600160a01b0316816001600160a01b031614155b8015610ed25750610ed081846107ea565b155b15610efb5760405163a9fbf51f60e01b81526001600160a01b03841660048201526024016103e2565b8115610f435783856001600160a01b0316826001600160a01b03167f8c5be1e5ebec7d5bd14f71427d1e84f3dd0314c0f7b2291e5b200ac8c7c3b92560405160405180910390a45b505b50505f90815260046020526040902080546001600160a01b0319166001600160a01b0392909216919091179055565b610f7f83838361107f565b610465576001600160a01b038316610fad57604051637e27328960e01b8152600481018290526024016103e2565b60405163177e802f60e01b81526001600160a01b0383166004820152602481018290526044016103e2565b610fe283836110e0565b610465335f858585610c38565b60605f610ffb83611141565b60010190505f8167ffffffffffffffff81111561101a5761101a61131c565b6040519080825280601f01601f191660200182016040528015611044576020820181803683370190505b5090508181016020015b5f19016f181899199a1a9b1b9c1cb0b131b232b360811b600a86061a8153600a850494508461104e57509392505050565b5f6001600160a01b038316158015906107e25750826001600160a01b0316846001600160a01b031614806110b857506110b884846107ea565b806107e25750505f908152600460205260409020546001600160a01b03908116911614919050565b6001600160a01b03821661110957604051633250574960e11b81525f60048201526024016103e2565b5f61111583835f610999565b90506001600160a01b03811615610465576040516339e3563760e11b81525f60048201526024016103e2565b5f8072184f03e93ff9f4daa797ed6e38ed64bf6a1f0160401b831061117f5772184f03e93ff9f4daa797ed6e38ed64bf6a1f0160401b830492506040015b6d04ee2d6d415b85acef810000000083106111ab576d04ee2d6d415b85acef8100000000830492506020015b662386f26fc1000083106111c957662386f26fc10000830492506010015b6305f5e10083106111e1576305f5e100830492506008015b61271083106111f557612710830492506004015b60648310611207576064830492506002015b600a83106102f25760010192915050565b6001600160e01b031981168114610851575f5ffd5b5f6020828403121561123d575f5ffd5b8135610e6981611218565b5f81518084528060208401602086015e5f602082860101526020601f19601f83011685010191505092915050565b602081525f610e696020830184611248565b5f60208284031215611298575f5ffd5b5035919050565b80356001600160a01b03811681146112b5575f5ffd5b919050565b5f5f604083850312156112cb575f5ffd5b6112d48361129f565b946020939093013593505050565b5f5f5f606084860312156112f4575f5ffd5b6112fd8461129f565b925061130b6020850161129f565b929592945050506040919091013590565b634e487b7160e01b5f52604160045260245ffd5b5f5f67ffffffffffffffff84111561134a5761134a61131c565b50604051601f19601f85018116603f0116810181811067ffffffffffffffff821117156113795761137961131c565b604052838152905080828401851015611390575f5ffd5b838360208301375f60208583010152509392505050565b5f82601f8301126113b6575f5ffd5b610e6983833560208501611330565b5f5f5f606084860312156113d7575f5ffd5b6113e08461129f565b9250602084013567ffffffffffffffff8111156113fb575f5ffd5b611407868287016113a7565b925050604084013567ffffffffffffffff811115611423575f5ffd5b61142f868287016113a7565b9150509250925092565b5f60208284031215611449575f5ffd5b610e698261129f565b5f5f60408385031215611463575f5ffd5b61146c8361129f565b915060208301358015158114611480575f5ffd5b809150509250929050565b5f5f5f5f6080858703121561149e575f5ffd5b6114a78561129f565b93506114b56020860161129f565b925060408501359150606085013567ffffffffffffffff8111156114d7575f5ffd5b8501601f810187136114e7575f5ffd5b6114f687823560208401611330565b91505092959194509250565b5f5f60408385031215611513575f5ffd5b61151c8361129f565b915061152a6020840161129f565b90509250929050565b606081525f6115456060830186611248565b6020830194909452506001600160a01b0391909116604090910152919050565b600181811c9082168061157957607f821691505b60208210810361159757634e487b7160e01b5f52602260045260245ffd5b50919050565b5f81518060208401855e5f93019283525090919050565b5f610e69828461159d565b5f600182016115dc57634e487b7160e01b5f52601160045260245ffd5b5060010190565b601f82111561046557805f5260205f20601f840160051c810160208510156116085750805b601f840160051c820191505b81811015610d59575f8155600101611614565b815167ffffffffffffffff8111156116415761164161131c565b6116558161164f8454611565565b846115e3565b6020601f821160018114611687575f83156116705750848201515b5f19600385901b1c1916600184901b178455610d59565b5f84815260208120601f198516915b828110156116b65787850151825560209485019460019092019101611696565b50848210156116d357868401515f19600387901b60f8161c191681555b50505050600190811b01905550565b5f6107e26116f0838661159d565b8461159d565b6001600160a01b03858116825284166020820152604081018390526080606082018190525f9061172890830184611248565b9695505050505050565b5f60208284031215611742575f5ffd5b8151610e698161121856fea264697066735822122062d914362603eaf39528f96a53d0800d61ab1af1ca68a9a1825a5a9a8118d2fc64736f6c634300081c0033",
  "linkReferences": {},
  "deployedLinkReferences": {},
  "immutableReferences": {},
  "inputSourceName": "project/contracts/PropertyNFT.sol",
  "buildInfoId": "solc-0_8_28-17f5f6d56baaa7150fa4c8ae9e89f161916002c6"
}